:100000000C942A000C9434000C9434000C943400AA
:100010000C9434000C9434000C9434000C94340090
:100020000C9434000C9434000C9434000C94340080
:100030000C9434000C9434000C9434000C94340070
:100040000C9434000C9434000C9434000C94340060
:100050000C94340011241FBECFE5D8E0DEBFCDBF25
:100060000E9436000C9449000C940000DF93CF935B
:10007000CDB7DEB7A4E3B0E0E4E3F0E080818460D4
:100080008C93A5E3B0E0E5E3F0E0808184608C939D
:06009000FFCFF894FFCF42
:00000001FF
