:100000000C942A000C943C000C943C000C943C0092
:100010000C943C000C943C000C943C000C943C0070
:100020000C943C000C943C000C9461060C94150656
:100030000C943C000C943C000C943C000C943C0050
:100040000C943C000C943C000C943C000C943C0040
:100050000C943C0011241FBECFE5D8E0DEBFCDBF1D
:1000600010E0A0E6B0E001C01D92AA36B107E1F7AA
:100070000E94AC060C94CF060C940000DF93CF9343
:1000800000D000D00F92CDB7DEB789836A834B834F
:100090008981843008F0DCC08A81883008F0D8C0BB
:1000A0008B81813021F08B81882309F0D1C0898137
:1000B000282F30E03D832C838C819D8181309105F8
:1000C00009F443C02C813D81223031052CF48C8110
:1000D0009D81009771F0BCC02C813D81223031059B
:1000E00009F45FC08C819D818330910509F485C03E
:1000F000AFC08B818130A1F4AAE3B0E0EAE3F0E085
:100100008081482F8A81282F30E081E090E0022E04
:1001100002C0880F991F0A94E2F7842B8C9398C031
:10012000AAE3B0E0EAE3F0E08081482F8A81282F3B
:1001300030E081E090E0022E02C0880F991F0A94FF
:10014000E2F7809584238C9383C08B818130A1F466
:10015000A7E3B0E0E7E3F0E08081482F8A81282F11
:1001600030E081E090E0022E02C0880F991F0A94CF
:10017000E2F7842B8C936CC0A7E3B0E0E7E3F0E0F8
:100180008081482F8A81282F30E081E090E0022E84
:1001900002C0880F991F0A94E2F7809584238C93FC
:1001A00057C08B818130A1F4A4E3B0E0E4E3F0E038
:1001B0008081482F8A81282F30E081E090E0022E54
:1001C00002C0880F991F0A94E2F7842B8C9340C0D9
:1001D000A4E3B0E0E4E3F0E08081482F8A81282F97
:1001E00030E081E090E0022E02C0880F991F0A944F
:1001F000E2F7809584238C932BC08B818130A1F40E
:10020000A1E3B0E0E1E3F0E08081482F8A81282F6C
:1002100030E081E090E0022E02C0880F991F0A941E
:10022000E2F7842B8C9314C0A1E3B0E0E1E3F0E0AB
:100230008081482F8A81282F30E081E090E0022ED3
:1002400002C0880F991F0A94E2F7809584238C934B
:100250000F900F900F900F900F90CF91DF91089516
:10026000DF93CF9300D000D00F92CDB7DEB7898354
:100270006A834B838981843008F0DCC08A818830AE
:1002800008F0D8C08B81813021F08B81882309F060
:10029000D1C08981282F30E03D832C838C819D81C2
:1002A0008130910509F443C02C813D812230310514
:1002B0002CF48C819D81009771F0BCC02C813D8114
:1002C0002230310509F45FC08C819D818330910516
:1002D00009F485C0AFC08B818130A1F4ABE3B0E0FD
:1002E000EBE3F0E08081482F8A81282F30E081E025
:1002F00090E0022E02C0880F991F0A94E2F7842B27
:100300008C9398C0ABE3B0E0EBE3F0E08081482F42
:100310008A81282F30E081E090E0022E02C0880F11
:10032000991F0A94E2F7809584238C9383C08B8174
:100330008130A1F4A8E3B0E0E8E3F0E08081482F49
:100340008A81282F30E081E090E0022E02C0880FE1
:10035000991F0A94E2F7842B8C936CC0A8E3B0E059
:10036000E8E3F0E08081482F8A81282F30E081E0A7
:1003700090E0022E02C0880F991F0A94E2F7809540
:1003800084238C9357C08B818130A1F4A5E3B0E026
:10039000E5E3F0E08081482F8A81282F30E081E07A
:1003A00090E0022E02C0880F991F0A94E2F7842B76
:1003B0008C9340C0A5E3B0E0E5E3F0E08081482FF6
:1003C0008A81282F30E081E090E0022E02C0880F61
:1003D000991F0A94E2F7809584238C932BC08B811C
:1003E0008130A1F4A2E3B0E0E2E3F0E08081482FA5
:1003F0008A81282F30E081E090E0022E02C0880F31
:10040000991F0A94E2F7842B8C9314C0A2E3B0E006
:10041000E2E3F0E08081482F8A81282F30E081E0FC
:1004200090E0022E02C0880F991F0A94E2F780958F
:1004300084238C930F900F900F900F900F90CF917B
:10044000DF910895DF93CF9300D000D0CDB7DEB712
:1004500089836A838981843008F072C08A818830F8
:1004600008F06EC08981282F30E03C832B838B817C
:100470009C818130910549F12B813C8122303105ED
:100480002CF48B819C81009761F05AC02B813C81B8
:100490002230310571F18B819C8183309105E9F126
:1004A0004FC0ABE3B0E0EBE3F0E08081482F8A81FE
:1004B000282F30E081E090E0022E02C0880F991FC3
:1004C0000A94E2F784278C933BC0A8E3B0E0E8E30A
:1004D000F0E08081482F8A81282F30E081E090E091
:1004E000022E02C0880F991F0A94E2F784278C938A
:1004F00027C0A5E3B0E0E5E3F0E08081482F8A81E2
:10050000282F30E081E090E0022E02C0880F991F72
:100510000A94E2F784278C9313C0A2E3B0E0E2E3ED
:10052000F0E08081482F8A81282F30E081E090E040
:10053000022E02C0880F991F0A94E2F784278C9339
:100540000F900F900F900F90CF91DF910895DF9350
:10055000CF9300D000D000D0CDB7DEB789836A83B7
:100560005C834B838981843008F079C08A8188302C
:1005700008F075C08B819C81009709F470C0898157
:10058000282F30E03E832D834D815E81413051051F
:1005900059F18D819E818230910534F42D813E8107
:1005A0002115310569F05BC04D815E8142305105F6
:1005B00079F18D819E818330910509F43DC04FC052
:1005C000E9E3F0E08081282F30E08A81882F90E0F5
:1005D000A90102C0559547958A95E2F7CA01817035
:1005E000EB81FC8180833BC0E6E3F0E08081282F33
:1005F00030E08A81882F90E0A90102C05595479587
:100600008A95E2F7CA018170EB81FC81808327C063
:10061000E3E3F0E08081282F30E08A81882F90E0AA
:10062000A90102C0559547958A95E2F7CA018170E4
:10063000EB81FC81808313C0E0E3F0E08081282F10
:1006400030E08A81882F90E0A90102C05595479536
:100650008A95E2F7CA018170EB81FC81808326963E
:100660000FB6F894DEBF0FBECDBFCF91DF910895D6
:10067000DF93CF9300D000D0CDB7DEB789836A83F4
:100680008981843008F072C08A81883008F06EC099
:100690008981282F30E03C832B838B819C818130A2
:1006A000910549F12B813C81223031052CF48B815D
:1006B0009C81009761F05AC02B813C81223031052A
:1006C00071F18B819C8183309105E9F14FC0ABE3DF
:1006D000B0E0EBE3F0E08081482F8A81282F30E002
:1006E00081E090E0022E02C0880F991F0A94E2F781
:1006F000842B8C933BC0A8E3B0E0E8E3F0E080817A
:10070000482F8A81282F30E081E090E0022E02C03D
:10071000880F991F0A94E2F7842B8C9327C0A5E3D6
:10072000B0E0E5E3F0E08081482F8A81282F30E0B7
:1007300081E090E0022E02C0880F991F0A94E2F730
:10074000842B8C9313C0A2E3B0E0E2E3F0E080815D
:10075000482F8A81282F30E081E090E0022E02C0ED
:10076000880F991F0A94E2F7842B8C930F900F90B7
:100770000F900F90CF91DF910895DF93CF9300D02A
:1007800000D0CDB7DEB789836A838981843008F0D1
:1007900055C08A818F3F21F08A81882309F04EC09D
:1007A0008981282F30E03C832B838B819C81813091
:1007B000910509F12B813C81223031052CF48B818C
:1007C0009C81009761F03AC02B813C812230310539
:1007D000F1F08B819C818330910529F12FC08A81B2
:1007E0008F3F29F4EAE3F0E08FEF808327C0EAE34C
:1007F000F0E0108223C08A818F3F29F4E7E3F0E024
:100800008FEF80831BC0E7E3F0E0108217C08A817E
:100810008F3F29F4E4E3F0E08FEF80830FC0E4E33F
:10082000F0E010820BC08A818F3F29F4E1E3F0E011
:100830008FEF808303C0E1E3F0E010820F900F9010
:100840000F900F90CF91DF910895DF93CF9300D059
:1008500000D0CDB7DEB789836A838981843090F573
:100860008981282F30E03C832B838B819C818130D0
:100870009105D1F02B813C81223031052CF48B8104
:100880009C81009761F01EC02B813C812230310594
:1008900081F08B819C818330910581F013C0EBE363
:1008A000F0E08A8180830EC0E8E3F0E08A818083F3
:1008B00009C0E5E3F0E08A81808304C0E2E3F0E070
:1008C0008A8180830F900F900F900F90CF91DF91CE
:1008D0000895DF93CF9300D000D00F92CDB7DEB74D
:1008E00089837B836A838981843008F03EC08A8152
:1008F0009B810097D1F18981282F30E03D832C83A3
:100900008C819D8181309105E1F02C813D812230E7
:1009100031052CF48C819D81009761F026C02C81DB
:100920003D8122303105A1F08C819D81833091057C
:10093000B1F01BC0E9E3F0E08081EA81FB818083B4
:1009400014C0E6E3F0E08081EA81FB8180830DC082
:10095000E3E3F0E08081EA81FB81808306C0E0E38D
:10096000F0E08081EA81FB8180830F900F900F90EF
:100970000F900F90CF91DF910895DF93CF9300D028
:100980000F92CDB7DEB789838981843008F03EC0ED
:100990008981282F30E03B832A838A819B818130A3
:1009A0009105E9F02A813B81223031052CF48A81BE
:1009B0009B81009761F02AC02A813B81223031055A
:1009C000B1F08A819B8183309105C9F01FC0ABE3F0
:1009D000B0E0EBE3F0E0808180958C9317C0A8E352
:1009E000B0E0E8E3F0E0808180958C930FC0A5E350
:1009F000B0E0E5E3F0E0808180958C9307C0A2E34E
:100A0000B0E0E2E3F0E0808180958C930F900F904E
:100A10000F90CF91DF910895DF93CF9300D00F9285
:100A2000CDB7DEB789838981843090F58981282FFD
:100A300030E03B832A838A819B8181309105D1F00C
:100A40002A813B81223031052CF48A819B810097D9
:100A500061F01EC02A813B812230310581F08A81FC
:100A60009B818330910581F013C0EBE3F0E08FEFC1
:100A700080830EC0E8E3F0E08FEF808309C0E5E3F8
:100A8000F0E08FEF808304C0E2E3F0E08FEF80833B
:100A90000F900F900F90CF91DF910895DF93CF9338
:100AA000CDB7DEB7AFE5B0E0EFE5F0E0808180687C
:100AB0008C93CF91DF910895DF93CF93CDB7DEB7BD
:100AC000AFE5B0E0EFE5F0E080818F778C93CF91D8
:100AD000DF910895DF93CF93CDB7DEB7A3E5B0E004
:100AE000E3E5F0E0808180648C93A3E5B0E0E3E58A
:100AF000F0E0808188608C93A3E5B0E0E3E5F0E06E
:100B000080818F7E8C93A3E5B0E0E3E5F0E0808107
:100B100080628C93CF91DF910895DF93CF93CDB70F
:100B2000DEB7A3E5B0E0E3E5F0E0808181608C937F
:100B3000A3E5B0E0E3E5F0E0808182608C93A3E57B
:100B4000B0E0E3E5F0E080818B7F8C93CF91DF9183
:100B50000895DF93CF93CDB7DEB7A3E5B0E0E3E52B
:100B6000F0E080818E7F8C93A3E5B0E0E3E5F0E0D8
:100B700080818D7F8C93A3E5B0E0E3E5F0E0808198
:100B80008B7F8C93CF91DF910895DF93CF930F925A
:100B9000CDB7DEB78983ECE5F0E0898180830F90E3
:100BA000CF91DF910895DF93CF9300D0CDB7DEB71B
:100BB0009A838983ECE5F0E089EF808389819A81CB
:100BC00090936900809368000F900F90CF91DF9110
:100BD0000895DF93CF9300D0CDB7DEB79A83898392
:100BE00089819A81009731F089819A81909361007F
:100BF000809360000F900F90CF91DF910895DF9365
:100C0000CF9300D0CDB7DEB79A83898389819A814B
:100C1000009731F089819A819093630080936200FC
:100C20000F900F90CF91DF9108951F920F920FB602
:100C30000F9211242F933F934F935F936F937F9362
:100C40008F939F93AF93BF93EF93FF93DF93CF93D4
:100C5000CDB7DEB7809164009091650001969093C6
:100C6000650080936400809164009091650023E0AA
:100C7000813D920799F4E2E5F0E081E780831092EC
:100C8000650010926400809160009091610000976F
:100C900029F0E0916000F09161000995CF91DF911A
:100CA000FF91EF91BF91AF919F918F917F916F9144
:100CB0005F914F913F912F910F900FBE0F901F901A
:100CC00018951F920F920FB60F9211242F933F93F6
:100CD0004F935F936F937F938F939F93AF93BF9344
:100CE000EF93FF93DF93CF93CDB7DEB7809166008C
:100CF0009091670001969093670080936600209121
:100D00006800309169008091660090916700281713
:100D1000390779F4109267001092660080916200A2
:100D200090916300009729F0E0916200F0916300D8
:100D30000995CF91DF91FF91EF91BF91AF919F9175
:100D40008F917F916F915F914F913F912F910F9074
:100D50000FBE0F901F901895DF93CF93CDB7DEB7DE
:100D600082E062E041E00E943E000E944E050E9447
:100D70006A0580ED97E00E94D30584EC96E00E941E
:100D8000FF050E948D05FFCFDF93CF93CDB7DEB770
:100D900082E062E00E942202CF91DF910895F894F0
:020DA000FFCF83
:00000001FF
