:100000000C942A000C9434000C9434000C943400AA
:100010000C9434000C9434000C9434000C94340090
:100020000C9434000C9434000C9434000C94340080
:100030000C9434000C9434000C9434000C94340070
:100040000C9434000C9434000C9434000C94340060
:100050000C94340011241FBECFE5D8E0DEBFCDBF25
:100060000E9436000C943F000C940000DF93CF9365
:10007000CDB7DEB7E1E3F0E08AE08083FBCFF89410
:02008000FFCFB0
:00000001FF
